:020000040800F2
:1000000000000220B9020008BF020008C302000875
:1000100035030008390300088103000800000000D0
:10002000000000000000000000000000F11B0008BC
:10003000CD03000800000000911C0008F51C00081A
:10004000E5030008E5030008E5030008E5030008F0
:10005000E5030008E5030008E5030008E5030008E0
:10006000E5030008E5030008E5030008E5030008D0
:10007000E5030008E5030008E5030008E5030008C0
:10008000E5030008E5030008E5030008E5030008B0
:10009000E5030008E5030008E5030008E5030008A0
:1000A000E5030008E5030008E5030008E503000890
:1000B000E5030008E5030008E5030008E503000880
:1000C000E5030008E5030008E5030008E503000870
:1000D000E5030008E5030008E5030008E503000860
:1000E000E5030008E5030008E5030008E503000850
:1000F000E5030008E5030008E5030008E503000840
:10010000E5030008E5030008E5030008E50300082F
:10011000E5030008E5030008E5030008E50300081F
:10012000E5030008E5030008E5030008E50300080F
:10013000E5030008E5030008E5030008E5030008FF
:10014000E5030008E5030008E5030008E5030008EF
:10015000E5030008E5030008E5030008E5030008DF
:10016000E5030008E5030008E5030008E5030008CF
:10017000E5030008E5030008E503000800000000AF
:10018000E5030008E503000800B583B001F0CEF9EF
:10019000384B394A1360394A1360394906E052F83E
:1001A000041B43F8041B9842F9D86146354B994229
:1001B00005D20A684B6801F10C0C8868F3E72E4BF6
:1001C0001A68314B9A4200D0FEE72C4B1A682F4B2D
:1001D0009A42F9D1274B2E4A13602E4A13602E4AB9
:1001E00000E002462D4B9A4209D2104650F8083BD7
:1001F00051689942F5D9002243F8042BF9E7244BC2
:100200001B6813B9234B1B6803B1FEE701F042FAE8
:10021000694601A800F0D0FF214C224BE41AA4103B
:10022000002504E01F4B53F8253098470135AC42B8
:10023000F8DC1D4C1D4BE41AA410002504E01B4BF8
:1002400053F8253098470135AC42F8DC0099019805
:1002500001F0C8FA0546164C164BE41AA41004E047
:10026000013C144B53F824309847002CF8DC284606
:1002700000F03EFFBABADECA00000020780000207D
:10028000E8030008000400087856341232547698C7
:100290007C00002028300120000400081004000821
:1002A00010040008100400081004000810040008DE
:1002B000100400081004000808B5FFF765FF00BE31
:1002C000FEE71EF0040F0CBFEFF30880EFF3098088
:1002D0007146414A10472DE9F04182B004460D466F
:1002E000124B5F6BD3F838809E6A1B6B13F0020FC2
:1002F00003D00E4BDB6A002B0BDB0D4800F0F2FF46
:10030000009543463A463146204601F015F800BEB6
:10031000FEE74BF6AB6101F089F80028EDD0034B06
:100320004FF00042DA6202B0BDE8F08100ED00E07B
:10033000E842000800BEFEE71EF0040F0CBFEFF31A
:100340000880EFF309807146244A10472DE9F041F7
:1003500082B004460D46084B5F6BD3F838809E6A26
:10036000064800F0BFFF009543463A463146204616
:1003700000F0E2FF00BEFEE700ED00E0F8420008FA
:100380001EF0040F0CBFEFF30880EFF309807146F5
:10039000134A10472DE9F04182B004460D46084B40
:1003A0005F6BD3F838809E6A064800F09BFF00958B
:1003B00043463A463146204600F0BEFF00BEFEE707
:1003C00000ED00E00443000800BEFEE700BEFEE7CB
:1003D00000BEFEE770470000D70200084D0300088A
:0803E0009503000800BEFEE7D2
:1003E80068450008000000207C00002068450008DF
:1003F80000000010000000107C0000202C300120BC
:080408000000001000000010CC
:1004100010B504460E4B1A784FF47A73B3FBF2F31F
:100420000C4A1068B0FBF3F000F09CF868B90F2C90
:1004300001D901200AE0002221464FF0FF3000F0F0
:100440004BF8054B1C60002000E0012010BD00BFF0
:10045000040000200C0000200800002008B50B4B11
:100460001A6842F400721A601A6842F480621A60D4
:100470001A6842F480721A60032000F00FF80F200F
:10048000FFF7C6FF01F048FA002008BD003C02401B
:10049000014B1868704700BF8000002010B504466B
:1004A000C31E042B0FD80A4AD36823F4E0631B044D
:1004B0001B0C240204F4E064234343F0BF6343F4C1
:1004C0000033D36010BD9221024801F0EBF8EAE757
:1004D00000ED00E03441000870B505460C461646B4
:1004E0000F2A25D80F2C28D81B4BDB68C3F3022317
:1004F000C3F10702042A28BF0422191D062921D9A5
:10050000033B4FF0FF3101FA02F224EA02049C405F
:10051000994026EA010644EA0602002D14DB120186
:10052000D2B205F1604505F5614585F8002370BD3F
:10053000AA210A4801F0B6F8D4E7AB21074801F038
:10054000B1F8D1E70023DCE705F00F051201D2B2C4
:10055000034B5A55EBE700BF00ED00E034410008C3
:1005600014ED00E00138B0F1807F0BD24FF0E023B2
:100570005861054AF02182F8231000209861072273
:100580001A6170470120704700ED00E010B5044685
:10059000042800D040B9042C0CD04FF0E02213699D
:1005A00023F00403136110BD40F2C911054801F0A6
:1005B00079F8F0E74FF0E022136943F00403136188
:1005C000F1E700BF344100082DE9F04383B007464E
:1005D0000E46AB4B984223D003F5806398421FD060
:1005E00003F5806398421BD003F58063984217D0CF
:1005F00003F58063984213D003F5806398420FD0CF
:1006000003F5806398420BD003F58063984207D0CE
:1006100003F58063984203D0B3219A4801F042F871
:1006200033689AB212B11B0C1B041BB1B42195485C
:1006300001F038F87368012B11D9934A93420ED018
:1006400015D8A2F58012934209D003D98F4A93425C
:1006500005D017E0032B07D9113B012B12D8B36843
:10066000022B14D80024B4E0022B0BD3F7E7884AFE
:100670009342F4D002F580329342F0D0A2F580127A
:100680009342ECD0B5217F4801F00CF8E7E7B621A2
:100690007C4801F007F8E5E7C8217A4801F002F844
:1006A000ADE00F2B40F0DA80E208083257F8220064
:1006B00004F0070189000F238B4020EA030033690F
:1006C0008B40034347F822303B6809EA030973680B
:1006D00003F00303AB4043EA09033B60736813F084
:1006E000805F75D0002301936A4B5A6C42F48042BC
:1006F0005A645B6C03F480430193019BA208911C34
:10070000654B53F8210004F0030189000F238B404F
:1007100020EA03005A4B9F4225D003F580639F4295
:1007200000F0A18003F580639F4200F09E8003F5F6
:1007300080639F4200F09B8003F580639F4200F03E
:10074000988003F580639F4200F0958003F58063F5
:100750009F4200F0928003F580639F4201D00823FE
:1007600002E0072300E000238B40034302324A49A2
:1007700041F82230494B1A686FEA080322EA08015F
:10078000706810F4803F01D048EA0201434A1160CA
:10079000526803EA0201706810F4003F01D048EA91
:1007A00002013E4A5160926803EA0201706810F447
:1007B000801F01D048EA0201384A9160D268134094
:1007C000716811F4001F01D048EA0203334AD36074
:1007D00001340F2C64D80125A540336803EA0508CD
:1007E00035EA0303F4D173685A1E012A03D9112B89
:1007F00001D0122B16D1F368032B3FF64DAFBA6828
:10080000610003238B4022EA0302F3688B40134309
:10081000BB607A6822EA05027368C3F30013A34041
:1008200013437B60FA6865000323AB406FEA03095A
:1008300022EA0302B368AB401343FB607368022BE8
:1008400002D0122B7FF440AF3369002B3FF42CAF62
:100850000D2B3FF626AF002B7FF426AFE021094891
:1008600000F020FF20E701237EE702237CE703233B
:100870007AE7042378E7052376E7062374E700BFC9
:100880000000024068410008000021100000121022
:10089000000031100038024000380140003C0140A7
:1008A00003B0BDE8F08300BF002800F05B8270B5A4
:1008B00082B0044603680F2B39D8236813F0010F68
:1008C0004DD063682BB1B3F5803F02D0B3F5A02FB4
:1008D00032D1804B9B6803F00C03042B36D07D4B48
:1008E0009B6803F00C03082B2BD06368B3F5803FA3
:1008F0005FD0B3F5A02F62D0764B1A6822F4803215
:100900001A601A6822F480221A606368002B60D093
:10091000FFF7BEFD05466F4B1B6813F4003F1ED169
:10092000FFF7B6FD401B6428F5D9032021E2E8213A
:10093000694800F0B7FEC0E7ED21674800F0B2FE5D
:10094000C7E7644B5B6813F4800FCED0614B1B6824
:1009500013F4003F03D06368002B00F00582236886
:1009600013F0020F66D0E368012B41D823691F2BD7
:1009700044D8584B9B6813F00C0F4AD0554B9B68DA
:1009800003F00C03082B3FD0E368002B77D0534BC8
:1009900001221A60FFF77CFD05464E4B1B6813F0E1
:1009A000020F63D1FFF774FD401B0228F5D9032025
:1009B000DFE1484A136843F480331360A5E7454BF1
:1009C0001A6842F480221A601A6842F480321A606F
:1009D0009BE7FFF75DFD05463E4B1B6813F4003FA8
:1009E000BDD0FFF755FD401B6428F5D90320C0E1B9
:1009F00040F21F11384800F055FEB7E74FF49071F0
:100A0000354800F04FFEB4E7324B5B6813F4800FBB
:100A1000BAD1304B1B6813F0020F03D0E368012BEF
:100A200040F0A4812B4A136823F0F803216943EABC
:100A3000C1031360236813F0080F51D06369012BC1
:100A40002FD863699BB3254B0122C3F8802EFFF793
:100A50001FFD05461F4B5B6F13F0020F40D1FFF7E0
:100A600017FD401B0228F5D9032082E1194A1368BB
:100A700023F0F803216943EAC1031360DAE7174B57
:100A800000221A60FFF704FD0546124B1B6813F0A5
:100A9000020FCFD0FFF7FCFC401B0228F5D9032042
:100AA00067E14FF4B0710C4800F0FCFDC9E70B4B57
:100AB0000022C3F8802EFFF7EBFC0546054B5B6F69
:100AC00013F0020F0CD0FFF7E3FC401B0228F5D90E
:100AD00003204EE1003802409841000800004742E0
:100AE000236813F0040F7CD0A368012B01D9052BD8
:100AF00038D1A44B1B6C13F0805F39D100230193D4
:100B0000A04B1A6C42F080521A641B6C03F08053A5
:100B10000193019B01259C4B1B6813F4807F29D016
:100B2000A368012B3AD0052B3ED0964B1A6F22F0CA
:100B300001021A671A6F22F004021A67A368002BD9
:100B40003CD0FFF7A5FC06468E4B1B6F13F0020F3F
:100B500045D1FFF79DFC801B41F288339842F3D9C1
:100B6000032006E14FF4C671884800F09BFDC0E702
:100B70000025D0E7844A136843F480731360FFF7BD
:100B800087FC0646804B1B6813F4807FC8D1FFF7B3
:100B90007FFC801B0228F5D90320EAE0794A136F15
:100BA00043F001031367C9E7764B1A6F42F0040262
:100BB0001A671A6F42F001021A67BFE7FFF768FC75
:100BC0000646704B1B6F13F0020F08D0FFF760FC56
:100BD000801B41F288339842F3D90320C9E0002DED
:100BE0003ED1A369022B41D8A369002B00F0C0803D
:100BF000644A926802F00C02082A00F09380022BEB
:100C00007CD1E36913B1B3F5800F35D1236A3F2B53
:100C100038D8636A323BB3F5BF7F39D8A36A022B59
:100C200008D0082B3AD84FF4A87222FA03F313F035
:100C3000010F33D0E36A023B0D2B35D8544B002211
:100C40001A66FFF725FC05464E4B1B6813F0007F24
:100C500030D0FFF71DFC401B0228F5D9032088E0A7
:100C6000484A136C23F080531364BAE740F2CF1163
:100C7000464800F017FDB7E74FF4EC71434800F029
:100C800011FDC3E740F2D911404800F00BFDC0E769
:100C90004FF4ED713D4800F005FDBFE740F2DB1178
:100CA0003A4800F0FFFCC5E74FF4EE71374800F01A
:100CB000F9FCC3E7E369226A1343626A43EA8213D9
:100CC000A26A5208013A43EA0243E26A43EA026333
:100CD0002C4A53602E4B01221A66FFF7D9FB0446BB
:100CE000284B1B6813F0007F06D1FFF7D1FB001BD8
:100CF0000228F5D903203CE000203AE0244B0022F2
:100D00001A66FFF7C5FB04461E4B1B6813F0007FF5
:100D100006D0FFF7BDFB001B0228F5D9032028E011
:100D2000002026E0012B26D0164B5B6803F48001DF
:100D3000E269914221D103F03F02216A8A421ED129
:100D4000616A47F6C0721A408A4223D103F44032E6
:100D5000A16A8A4220D103F07063E26A93421DD1F6
:100D6000002006E001207047012002E0012000E0A1
:100D7000002002B070BD0120FBE70120F9E701204F
:100D8000F7E700BF003802400070004098410008BB
:100D9000000047420120ECE70120EAE70120E8E7F4
:100DA00008B5334B9B6803F00C03042B5BD0082B76
:100DB0005BD12F4B5A6802F03F025B6813F4800F3F
:100DC0002CD02B4B5868C0F388104FEA401CBCEB6A
:100DD000000C6EEB0E0E4FEA8E1343EA9C634FEA53
:100DE0008C11B1EB0C0163EB0E03DB0043EA517392
:100DF000C90011EB000C43F10003590200234FEA34
:100E00004C2041EADC5102F033FB194B5B68C3F321
:100E1000014301335B00B0FBF3F027E0144B58684B
:100E2000C0F388104FEA401CBCEB000C6EEB0E0EBA
:100E30004FEA8E1343EA9C634FEA8C11B1EB0C012D
:100E400063EB0E03DB0043EA5173C90011EB000CA6
:100E500043F10003990200234FEA8C2041EA9C51A0
:100E600002F006FBD1E7034800E0034808BD00BFDD
:100E70000038024000127A000024F400002800F03C
:100E8000FA8070B50D4604460368013B0E2B30D83E
:100E9000072D34D87C4B1B6803F00F03AB4208D2FC
:100EA000EBB2794A1370136803F00F03AB4240F0C2
:100EB000E480236813F0020F32D013F0040F04D043
:100EC000724A936843F4E0539360236813F0080F69
:100ED00004D06E4A936843F460439360A368C3B13F
:100EE000C02B16D049D8A02B13D00ED9B02B10D0C0
:100EF00049E040F25121664800F0D4FBC8E740F2D7
:100F00005221634800F0CEFBC4E7802B01D0902B28
:100F100039D15E4A936823F0F003A1680B439360D4
:100F2000236813F0010F48D06368032B31D863683E
:100F3000012B34D09A1E012A38D9544A126812F073
:100F4000020F00F09C8051498A6822F0030213438B
:100F50008B60FFF79DFA06464C4B9B6803F00C0331
:100F60006268B3EB820F28D0FFF792FA801B41F240
:100F700088339842F0D9032070E0E02BC9D0F02BE1
:100F8000C7D0D02BC5D040F27521414800F08AFB74
:100F9000BFE74FF41F713E4800F084FBC7E73B4AB0
:100FA000126812F4003FCED1012057E0374A126890
:100FB00012F0007FC7D1012050E0334B1B6803F0D3
:100FC0000F03AB4207D9EAB22F4B1A701B6803F02C
:100FD0000F03AB4255D1236813F0040F14D0E3681C
:100FE0005BB1B3F5805F08D0B3F5A05F05D0B3F572
:100FF000C05F02D0B3F5E05F31D1244A936823F497
:10100000E053E1680B439360236813F0080F15D099
:1010100023695BB1B3F5805F08D0B3F5A05F05D05D
:10102000B3F5C05F02D0B3F5E05F1ED1174A9368F5
:1010300023F46043216943EAC1039360FFF7B0FEE4
:10104000124B9B68C3F30313124AD35CD840124B74
:101050001860124B1868FFF7DBF9002070BD40F2F2
:10106000BA210B4800F01EFBC7E740F2C121084837
:1010700000F018FBDAE7012070470120EEE70120BD
:10108000ECE70120EAE700BF003C024000380240E4
:1010900098410008144300080C00002008000020BC
:1010A000014B1868704700BF0C00002008B50346CC
:1010B0000C4A12685AB10B4A1068033323F0030339
:1010C0000344094A934206D8064A136008BD054AFC
:1010D00006491160EFE702F049FB0C2303604FF073
:1010E000FF30F3E78400002000FC01202C300120B9
:1010F00000B530B9044D182420462946ABBE04463D
:10110000FEE7024DF7E700BF2600020023000200C1
:101110002DE9F04184B0234F019703260396002365
:101120000293012401AD20462946ABBE80461E4BEA
:10113000C3F80080019703960423029320462946B2
:10114000ABBE8046194BC3F8008001970396082375
:10115000029320462946ABBE0446154B1C60B4F1F1
:10116000FF3F01D000230AE0104B1A68104B1A60B1
:10117000F8E7104A4FF0FF3142F833100133132BD8
:10118000F7DD0C4B084A12681A6000225A600749C2
:1011900009689960DA600649096819615A6104B002
:1011A000BDE8F081C8410008080100200C010020C2
:1011B00004010020100100202DE9F04383B0814696
:1011C00088462A4B00934F23019315276C463846D7
:1011D0002146ABBE0746AFBB244B002283F84F200D
:1011E000009A3E463C463D4607E001321E46204BF3
:1011F00043F8252001350124013292F90030FBB17A
:1012000064B91C49C9560029F6DB092BF4D0082D16
:1012100016DC222BE9D0272BE9D1E6E736B19E4236
:10122000EAD1002313703E463C46E5E71149C95612
:10123000002901DB092BDFD1002313703446DBE7E3
:101240003DB900E00025094B00221A70084A1360DE
:101250000135074B002243F82520C9F80050C8F893
:101260000030FFF755FF03B0BDE8F0838800002091
:10127000D8000020C94300082DE9F04385B004469A
:101280000F4643563BBB042528462146ABBE0546C8
:10129000384605B0BDE8F08314F901CB03F1100224
:1012A0006A4402F810CC0133AB42F5D310336B44DF
:1012B000002203F8102C4FF00408E9464046494646
:1012C000ABBE8046761B002EE2D03546102E28BFDE
:1012D00010250023E8E70E46F5E708B5FFF7CCFF39
:1012E00008BD00000FB400B583B004AB53F8042B65
:1012F00001938021074802F037FB002804DC03B08B
:101300005DF804EB04B0704701460248FFF7E5FFC3
:10131000F5E700BFB001002010B5044602F0F0FA76
:1013200001462046FFF7D9FF01210248FFF7D5FF0C
:1013300010BD00BF64420008F8B504460D461746CC
:101340001E462748FFF7CEFF21682648FFF7CAFF51
:1013500061682548FFF7C6FFA1682448FFF7C2FF70
:10136000E1682348FFF7BEFF21692248FFF7BAFF73
:1013700061692148FFF7B6FFA1692048FFF7B2FF76
:10138000E1691F48FFF7AEFF1E48FFF7ABFF294694
:101390001D48FFF7A7FF1D4CE16A1D48FFF7A2FF9C
:1013A000216B1C48FFF79EFFE16B1B48FFF79AFF7C
:1013B00015F0800F0AD115F4004F0CD11748FFF734
:1013C00091FF06991648FFF78DFFF8BD394615487D
:1013D000FFF788FFEFE731461348FFF783FFEDE79C
:1013E000CC410008DC410008EC410008FC41000849
:1013F0000C4200081C4200082C4200083C42000835
:101400004C4200085C4200086842000800ED00E021
:10141000784200088842000898420008C842000844
:10142000D0420008A8420008B842000838B58369D5
:101430001B888B4201D0002038BD044603684568F4
:10144000013B302B69D8DFE803F046211C1C5E30DD
:10145000332D1919681919191919361924681927FA
:10146000683968686868686868686868686868682B
:101470006868686868686868681919004FF0FF3321
:101480000360A3690233A3610120D5E70023036051
:10149000F7E700230360F4E700232B606B60AB6089
:1014A000EB60EEE700230360EBE7AB680360E8E77F
:1014B00000230360E5E700230360E2E7BFF34F8FFB
:1014C0001749CA6802F4E062164B1343CB60BFF3BE
:1014D0004F8F00BFFDE71449286802F007FA40B9B2
:1014E0006B6813B901232360CBE7042B05D0082BCD
:1014F00006D04FF0FF332360C3E702232360C0E729
:1015000003232360BDE72B68023B012B02D9AB68A4
:101510000360B6E700230360B3E700208CE700BF59
:1015200000ED00E00400FA05C841000808B500F02D
:1015300009F8024A024B9A6008BD00BF000000088B
:1015400000ED00E0024B4FF000629A60704700BF70
:1015500000ED00E0224B9B6803F00C03042B14D039
:10156000082B16D01BB11F4B1F4A1A6002E01D4BFF
:101570001D4A1A601A4B9B68C3F303131B4AD15CC4
:10158000184A1368CB4013607047164B184A1A600C
:10159000F0E7134B59685A6802F03F0211F4800FCC
:1015A00013D0134BB3FBF2F30D4A5268C2F3881207
:1015B00002FB03F30A4A5268C2F3014201325200AD
:1015C000B3FBF2F3074A1360D4E7074BB3FBF2F324
:1015D000034A5268C2F3881202FB03F3EAE700BF32
:1015E000003802400C0000200024F40014430008DE
:1015F00000127A0030B595B000240194224B1A6C89
:1016000042F080521A641B6C03F080530193019BDB
:1016100002941E4B1A6842F480421A601B6803F45D
:1016200080430293029B012308934FF48033099374
:101630004FF480030F93082310934FF4A873119372
:1016400002251295072313930E9508A8FFF72CF98E
:101650000F230393049505944FF4A05306934FF47E
:1016600080530793052103A8FFF708FCFFF718FD37
:10167000074BA3FB00308009FEF774FF0420FEF740
:1016800085FF15B030BD00BF00380240007000403B
:10169000D34D621008B5FEF7E1FEFFF7ABFFFFF791
:1016A00059FF08BD08B50A4601460248FFF71AFE71
:1016B000FEE700BF2443000801604260012101FAF7
:1016C00002F2826003737047037B5BB1436803F1EE
:1016D0001001036803F5801380339B0201228A40C6
:1016E0009A617047036803F5801380339B02826818
:1016F0009A617047037B3BB1036803F58013803325
:101700009B0282689A617047436803F11001036885
:1017100003F5801380339B0201228A409A6170474F
:1017200010B586B004460D48026B2168012303FA08
:1017300001F10A430263A268019202930222049219
:101740000393206800F58010803001A98002FEF725
:101750003BFF2046FFF7CEFF06B010BD0038024029
:1017600084B00DF1100C0CE90F009DF80C305BB14A
:1017700000F5801380339B021A69029B1A420CBF4A
:101780000120002004B07047009B03F580138033D4
:101790009B021A69029B1A4214BF01200020F1E744
:1017A00008B50848FFF7B8FD074B0FCBFFF7D8FF88
:1017B00018B10548FFF79EFF08BD0348FFF784FFF7
:1017C000FAE700BF544300083002002008B5034880
:1017D000FFF7A2FD0248FFF777FF08BD7C43000832
:1017E0004002002030B587B03C4D02AC00230C22F3
:1017F00003212046FFF760FF94E80F0085E80F0003
:1018000000230D2203212046FFF756FF05F1100C9F
:1018100094E80F008CE80F0000230E2203212046DD
:10182000FFF74AFF05F1200C94E80F008CE80F0049
:1018300000230F2203212046FFF73EFF303594E8B6
:101840000F0085E80F00002405E0244800EB041099
:10185000FFF766FF0134032CF7DD214B00930023D3
:101860001A464FF4FA611F4801F07AFC1E4C2060C2
:101870001E4B009301231A464FF47A711C4801F065
:101880006FFC1C4B18602468CCB1C0B101F060F84B
:101890000246002500952B460121204601F07AFCE6
:1018A000154B1860134B1C6801F052F80246009566
:1018B0002B460121204601F06DFC104B18600E4BA9
:1018C0001B68012B02D0002007B030BD0B4B1B68FA
:1018D000012BF8D100F0F2FFF5E700BF3002002045
:1018E000CD170008A043000870020020A1170008CF
:1018F000A843000878020020740200207C02002027
:10190000FEE7FEE700B583B000F026F90190019BE9
:1019100003B05DF804FB704770470000124A12F0F4
:10192000070F1ED0D11D21F00701C1F596331344D6
:101930000A460E480260002141601344083B23F030
:1019400007030B48036059601960991A51601360CE
:10195000084B1960084B1960084B4FF000421A60A1
:1019600070474FF49633E4E784020020902E012064
:10197000800200208C2E0120882E0120842E012040
:10198000164B1A461B688342FBD3516802EB010CCD
:10199000844509D0416800EB010C634509D0036020
:1019A000904219D010607047406801445160104661
:1019B000F0E710B40A4C2468A3420BD05B681944CA
:1019C000416013681B680360904200D010605DF8AE
:1019D000044B70470460F7E7704700BF902E01206A
:1019E0008002002070B5054600F0AAFF394B1B6845
:1019F0009BB1394B1B681D4212D135B1083515F02A
:101A0000070F02D025F007050835D5B1334B1B6809
:101A1000AB421AD3324A14681DE0FFF77FFFE8E7B4
:101A200001F030F80026FFF76BFF16F0070F4FD0DC
:101A30004FF0500383F31188BFF36F8FBFF34F8FC5
:101A4000FEE701F01FF80026EDE701F01BF8002685
:101A5000E9E722461C466368AB4202D22368002BAA
:101A6000F7D11C4B1B68A34214D0166808362368B4
:101A7000136063685B1B102B14D9601910F0070FFB
:101A80000CD04FF0500383F31188BFF36F8FBFF377
:101A90004F8FFEE700F0F6FF0026C4E74360656065
:101AA000FFF76EFF62680D490B689B1A0B600D49CA
:101AB00009688B4201D20B490B60074B1B6813432B
:101AC00063600023236000F0DDFF002EADD1AAE7A4
:101AD000304670BD80020020842E0120882E012017
:101AE000902E01208C2E012080B338B50446A0F141
:101AF000080550F8043C164A1268134208D14FF00A
:101B0000500383F31188BFF36F8FBFF34F8FFEE74E
:101B100050F8081C41B14FF0500383F31188BFF314
:101B20006F8FBFF34F8FFEE723EA020340F8043CB8
:101B300000F006FF54F8041C064A13680B441360B7
:101B40002846FFF71DFF00F09DFF38BD704700BF1E
:101B5000842E0120882E0120014B1868704700BF99
:101B6000882E01200B4B1B68B3F1FF3F08D04FF0CC
:101B7000500383F31188BFF36F8FBFF34F8FFEE7DE
:101B80004FF0500383F31188BFF36F8FBFF34F8F74
:101B9000FEE700BF1000002006480068006880F3E0
:101BA000088862B661B6BFF34F8FBFF36F8F00DF57
:101BB00000BF000008ED00E04FF0807340F8043CE7
:101BC00021F0010140F8081C054B40F80C3C40F89E
:101BD000202C6FF0020340F8243C4438704700BFCB
:101BE000651B00080000000000000000000000006D
:101BF000074B19680868B0E8F04F80F30988BFF315
:101C00006F8F4FF0000080F311887047AFF30080B2
:101C1000E02E01204FF0500383F31188BFF36F8F44
:101C2000BFF34F8F0B4A136801331360012B00D0B1
:101C300070474FF0E023D3F8043D13F0FF0FF7D0C7
:101C40004FF0500383F31188BFF36F8FBFF34F8FB3
:101C5000FEE700BF10000020094B1B6843B94FF09E
:101C6000500383F31188BFF36F8FBFF34F8FFEE7ED
:101C7000013B034A13600BB983F31188704700BF1F
:101C80001000002000000000000000000000000024
:101C9000EFF30980BFF36F8F154B1A681EF0100F1A
:101CA00008BF20ED108A20E9F04F10604DF8043D88
:101CB0004FF0500080F31188BFF34F8FBFF36F8F49
:101CC00000F0A2FF4FF0000080F3118808BC1968F3
:101CD0000868B0E8F04F1EF0100F08BFB0EC108A93
:101CE00080F30988BFF36F8F704700BFAFF30080A8
:101CF000E02E012008B54FF0500383F31188BFF3A5
:101D00006F8FBFF34F8F00F029FE28B14FF0E02313
:101D10004FF08052C3F8042D002383F3118808BDCF
:101D2000064B1B68064AA2FB03239B09013B4FF0AD
:101D3000E022536107231361704700BF0C000020AD
:101D4000D34D62104FF0E023D3F8002D344B9A426C
:101D50001CD04FF0E023D3F8002D324B9A421ED016
:101D600010B582B0304B1A78D2B20192FF221A70AD
:101D70001B78DBB28DF803309DF8033003F050037D
:101D80002A4A13702A4B07221A601BE04FF05003B7
:101D900083F31188BFF36F8FBFF34F8FFEE74FF0D0
:101DA000500383F31188BFF36F8FBFF34F8FFEE7AC
:101DB0001F4A1368013B13609DF803305B00DBB2E0
:101DC0008DF803309DF8033013F0800FF0D1184ADE
:101DD00013681B02136003F4E0631360019BDBB222
:101DE000114A13704FF0E024D4F8203D43F47003FF
:101DF000C4F8203DD4F8203D43F07043C4F8203DA2
:101E0000FFF78EFF0B4B00221A60D4F8343F43F0EB
:101E10004043C4F8343FFFF7BFFEFFF7A3FE00BF07
:101E200071C20F4170C20F4100E400E0982E012002
:101E30009C2E012010000020EFF305830F2B0FD9FB
:101E4000114A9B5CDBB2114A12789A4208D94FF0D2
:101E5000500383F31188BFF36F8FBFF34F8FFEE7FB
:101E60004FF0E023D3F80C3D03F4E063084A126816
:101E7000934208D94FF0500383F31188BFF36F8F5B
:101E8000BFF34F8FFEE77047F0E300E0982E01208C
:101E90009C2E012000F1080343604FF0FF32826066
:101EA000C360036100230360704700230361704730
:101EB00043684B609A688A60516099600861036862
:101EC00001330360704730B40D68B5F1FF3F11D0A6
:101ED00000F108031C465B681A68AA42FAD96368D5
:101EE0004B6099608C606160086103680133036036
:101EF00030BC70470469F2E70369416882688A6010
:101F0000416851605A68824205D000220261186817
:101F100001381860704782685A60F6E710B50446C9
:101F2000FFF778FEA26BE36B9A4204D00024FFF720
:101F300093FE204610BD0124F9E710B50446FFF7D3
:101F400069FEA36B23B90124FFF786FE204610BD6E
:101F50000024F9E770B504461546866B026C5AB941
:101F600003681BB100200136A66370BD406800F015
:101F7000E7FF00236360F6E76DB9806801F0FCFBC2
:101F8000226CA3681344A3606268934219D3236848
:101F9000A3602846E7E7C06801F0EEFB226C5142DF
:101FA000E3689B1AE3602268934202D263680B44A1
:101FB000E360022D01D00020D5E726B1013E0020CC
:101FC000D1E72846CFE70020CDE70346026C6AB18F
:101FD00010B50846D9681144D9605C68A14201D3A4
:101FE0001968D960D96801F0C7FB10BD704738B5D2
:101FF0000546FFF70FFE95F8454064B201E0013C4D
:1020000064B2002C0ADD6B6A43B105F1240000F0D4
:1020100095FE0028F3D000F02DFFF0E7FF2385F8B0
:102020004530FFF719FEFFF7F5FD95F8444064B21F
:1020300001E0013C64B2002C0ADD2B6943B105F1DB
:10204000100000F07BFE0028F3D000F013FFF0E753
:10205000FF2385F84430FFF7FFFD38BD38B5E0B108
:102060000D460446FFF7D6FD2368E26B216C01FBA9
:10207000023060600020A063A360013A02FB0133DC
:10208000E360FF2384F8443084F84530FDB92369C8
:1020900063B9FFF7E1FD012038BD4FF0500383F332
:1020A0001188BFF36F8FBFF34F8FFEE704F110006D
:1020B00000F044FE0028ECD04FF0E0234FF08052B7
:1020C000C3F8042DBFF34F8FBFF36F8FE1E704F127
:1020D0001000FFF7DFFE04F12400FFF7DBFED8E776
:1020E00038B51D46049C0B4649B92460E06323645F
:1020F00001212046FFF7B2FF84F84C5038BD226022
:10210000F4E740B94FF0500383F31188BFF36F8FAA
:10211000BFF34F8FFEE7F0B583B00C461546064679
:1021200089B101FB00F05030FFF75CFC074638B185
:1021300000902B4600F1500221463046FFF7D0FFB9
:10214000384603B0F0BD0846EDE7F0B585B0019222
:1021500088B10F461D460446B1B1022D20D1E36B74
:10216000012B1DD04FF0500383F31188BFF36F8F05
:10217000BFF34F8FFEE74FF0500383F31188BFF397
:102180006F8FBFF34F8FFEE7036C002BE5D04FF04E
:10219000500383F31188BFF36F8FBFF34F8FFEE7B8
:1021A00000F06EFE064658B9019B002B48D04FF058
:1021B000500383F31188BFF36F8FBFF34F8FFEE798
:1021C00000263DE02A4639462046FFF7C3FE636AF3
:1021D0007BB948B14FF0E0234FF08052C3F8042D93
:1021E000BFF34F8FBFF36F8FFFF736FD012005B0B0
:1021F000F0BD04F1240000F0A1FD0028F4D04FF060
:10220000E0234FF08052C3F8042DBFF34F8FBFF38C
:102210006F8FE9E7FFF720FD0020E8E702A800F054
:10222000D3FD012619E0002384F8443021E0002387
:1022300084F8453023E02046FFF7D9FE00F022FC69
:10224000FFF7E8FCA26BE36B9A42BBD3022DB9D037
:10225000019B002BDED0002EE0D0FFF7FDFC00F04C
:102260006FFBFFF7D7FC94F8442052B2B2F1FF3F66
:10227000D9D094F8452052B2B2F1FF3FD7D0FFF742
:10228000EBFC01A902A800F0B5FDD8B92046FFF784
:1022900045FE0028CFD0019904F1100000F01AFD8E
:1022A0002046FFF7A4FE00F0EDFB0028C8D14FF058
:1022B000E0234FF08052C3F8042DBFF34F8FBFF3DC
:1022C0006F8FBDE72046FFF792FE00F0DBFB00209A
:1022D0008DE72DE9F84390B10F4616461C4605469A
:1022E000B1B1022C20D1EB6B012B1DD04FF050036C
:1022F00083F31188BFF36F8FBFF34F8FFEE74FF06B
:10230000500383F31188BFF36F8FBFF34F8FFEE746
:10231000036C002BE5D04FF0500383F31188BFF31B
:102320006F8FBFF34F8FFEE7FFF786FDEFF3118846
:102330004FF0500383F31188BFF36F8FBFF34F8FBC
:10234000AA6BEB6B9A4206D3022C04D0002088F3D0
:102350001188BDE8F88395F845904FFA89F922462F
:1023600039462846FFF7F6FDB9F1FF3F06D009F1DF
:1023700001035BB285F845300120E8E76B6A0BB9D1
:102380000120E4E705F1240000F0D8FC18B126B1E3
:1023900001203060DBE70120D9E70120D7E72DE9F4
:1023A000F04184B00192A0B10E4698460446C9B1EE
:1023B00000F066FD054608BB019B002B00F08780FE
:1023C0004FF0500383F31188BFF36F8FBFF34F8F2C
:1023D000FEE74FF0500383F31188BFF36F8FBFF315
:1023E0004F8FFEE7036C002BE2D04FF0500383F3D6
:1023F0001188BFF36F8FBFF34F8FFEE7002566E0B4
:10240000E56831462046FFF7E0FDB8F1000F20D126
:102410007B1EA36323683BB123694BB9FFF71CFC08
:10242000012004B0BDE8F08100F0E2FD6060F3E758
:1024300004F1100000F082FC0028EFD04FF0E02300
:102440004FF08052C3F8042DBFF34F8FBFF36F8F4F
:10245000E4E7E560636A002BE0D004F1240000F0BB
:102460006DFC0028DAD04FF0E0234FF08052C3F823
:10247000042DBFF34F8FBFF36F8FCFE7FFF7ECFB58
:102480000020CEE702A800F09FFC012529E00023F0
:1024900084F8443031E0002384F8453033E0FFF71E
:1024A000B9FB606800F0FCFCFFF7D6FB3BE0204680
:1024B000FFF79DFD00F0E6FA09E02046FFF797FDE3
:1024C00000F0E0FA2046FFF738FD002842D1FFF780
:1024D000A1FBA76B002F93D1019B002BCED0002D29
:1024E000D0D0FFF7B9FB00F02BFAFFF793FB94F87D
:1024F000442052B2B2F1FF3FC9D094F8452052B205
:10250000B2F1FF3FC7D0FFF7A7FB01A902A800F077
:1025100071FC0028D1D12046FFF70FFD0028C6D05E
:102520002368002BBBD0019904F1240000F0D2FBFA
:102530002046FFF75CFD00F0A5FA0028C7D14FF058
:10254000E0234FF08052C3F8042DBFF34F8FBFF349
:102550006F8FBCE7002064E70023072B0CD8074AE5
:1025600052F833200AB10133F7E7044A42F8331036
:1025700002EBC30250607047704700BFA02E0120DD
:1025800070B504460D461646FFF744FB94F84430F8
:102590005BB2B3F1FF3F0DD094F845305BB2B3F1BD
:1025A000FF3F0BD0FFF758FBA36B5BB12046FFF753
:1025B0001EFD70BD002384F84430EDE7002384F84D
:1025C0004530EFE73246294604F1240000F09AFB3B
:1025D000ECE70000084B1B681B6823B9074B4FF062
:1025E000FF321A607047044B1B68DB68DB685A686F
:1025F000024B1A60704700BFE42E0120942F012087
:1026000010B50446006BFFF76FFA2046FFF76CFA2F
:1026100010BD2DE9F04780460D4617469946089EA5
:10262000DDF824A00A9C9200A521206B01F0B2F8ED
:10263000236B07F18042013A03EB820727F007077B
:102640004FF0000CBCF1090F09D815F90C3004EB60
:102650000C0282F8343013B10CF1010CF2E70023C4
:1026600084F83D30042E00D90426E662A6640025D5
:10267000E564201DFFF719FC04F11800FFF715FCB5
:102680002461C6F10506A6616462256584F854508C
:102690004A4641463846FFF78FFA2060BAF1000FEC
:1026A00001D0CAF80040BDE8F087000038B500242A
:1026B00007E004EB840293000E481844FFF7EAFB9E
:1026C0000134042CF5D90C4D2846FFF7E3FB0B4CE5
:1026D0002046FFF7DFFB0A48FFF7DCFB0948FFF75E
:1026E000D9FB0948FFF7D6FB084B1D60084B1C605F
:1026F00038BD00BFEC2E0120682F01207C2F012067
:102700009C2F0120C82F0120B42F0120E42E01208E
:10271000E82E012010B50446FFF77CFA224A136820
:1027200001331360214B1B685BB1214B1B686BB9F4
:102730001E4B1B68DA6AE36A9A4207D81B4B1C607F
:1027400004E01A4B1C601368012B29D0194A136846
:10275000013313602364E06A01238340164A116841
:102760000B43136000EB8000211D144B03EB800032
:10277000FFF79EFBFFF770FA0D4B1B687BB10B4B0D
:102780001B68DA6AE36A9A4209D24FF0E0234FF0FD
:102790008052C3F8042DBFF34F8FBFF36F8F10BD6E
:1027A000FFF784FFD2E700BF502F0120E02E012069
:1027B000B02F0120602F0120642F0120EC2E01207A
:1027C00070B504460D461D4B1E681D4B186804303D
:1027D000FFF792FB48B91A4B1B68DB6A01229A404B
:1027E00018490B6823EA02030B60B4F1FF3F0DD0D8
:1027F0003444134B1B685C60A64210D9124B186816
:102800000F4B19680431FFF75EFB70BD002DEFD050
:102810000B4B196804310D48FFF74AFBF5E70C4BE9
:102820001868074B19680431FFF74DFB094B1B680B
:10283000A342EAD9074B1C60E7E700BFDC2F012069
:10284000E02E0120642F0120E82E0120B42F01206A
:10285000E42E0120942F01202DE9F04385B0074696
:10286000884614461E469000FFF7BCF8F0B181463A
:102870005820FFF7B7F80546A0B1C0F83090D5B1A1
:102880000023039302950D9B01930C9B0093334609
:10289000224641463846FFF7BCFE2846FFF73AFF7E
:1028A000012005E04846FFF71FF9E8E74FF0FF3049
:1028B00005B0BDE8F0834FF0FF30F9E700B583B015
:1028C000194B019300230093822218491848FFF7FF
:1028D000C3FF012807D0012808D0B0F1FF3F1AD06C
:1028E00003B05DF804FB00F013FCF4E74FF0500375
:1028F00083F31188BFF36F8FBFF34F8F0D4B4FF0F2
:10290000FF321A600C4B01221A600C4B00221A6035
:10291000FFF718FAE4E74FF0500383F31188BFF391
:102920006F8FBFF34F8FFEE7902F0120B043000859
:10293000D92B0008942F0120B02F0120DC2F01207B
:10294000024A136801331360704700BF5C2F0120F7
:10295000014B1868704700BFDC2F0120F8B53E4BD3
:102960001B68002B6AD13D4B1D6801351D60C5B940
:102970003B4B1B681B6843B14FF0500383F3118836
:10298000BFF36F8FBFF34F8FFEE7354A1168354BAA
:10299000186810601960344A136801331360FFF738
:1029A00019FE324B1B68AB423ED90027304B1B68E7
:1029B000DB6A03EB83039A002E4B9B58012B00D953
:1029C00001272D4B1B68002B3FD1FEF7A4FF3CE0F5
:1029D0000127234B1B681B6843B3214B1B68DB6833
:1029E000DC6863689D4226D3261D3046FFF784FAD3
:1029F000A36A1BB104F11800FFF77EFAE36A012213
:102A00009A401E49086802430A6003EB83039A0058
:102A1000314618481044FFF74BFAE26A144B1B6822
:102A2000DB6A9A42D4D2D4E70027D2E70F4B4FF0AB
:102A3000FF321A60BAE70D4A1360B7E70E4A13680F
:102A400001331360FEF767FF00270D4B1B6803B1CE
:102A500001273846F8BD00BF5C2F0120DC2F012084
:102A6000E42E0120E82E0120982F0120942F012030
:102A7000E02E0120EC2E0120582F0120642F012090
:102A8000E02F012038B5354B1B6843B94FF0500398
:102A900083F31188BFF36F8FBFF34F8FFEE7FFF70C
:102AA000B9F82E4B1A68013A1A601B68002B4FD1F7
:102AB0002B4B1B680BB900244BE00024294B1B68EF
:102AC0001BB3284BDB68DC6804F11800FFF714FA2D
:102AD000251D2846FFF710FAE06A01238340224AA9
:102AE00011680B43136000EB800029461F4B03EB7A
:102AF0008000FFF7DDF9E26A1D4B1B68DB6A9A4232
:102B0000DCD31C4B01221A60D8E70CB1FFF762FD41
:102B1000194B1C6884B9174B1C68D4B14FF0E023E3
:102B20004FF08052C3F8042DBFF34F8FBFF36F8F68
:102B300001240EE0013C07D0FFF710FF0028F9D078
:102B40000C4B01221A60F5E70B4B00221A60E2E7FA
:102B50000024FFF781F8204638BD00BF5C2F01201C
:102B6000502F01209C2F0120642F0120EC2E0120EA
:102B7000E02E0120E02F0120582F0120134B1B686D
:102B800013B310B5FFF7DCFE114B1C68FFF77AFF9B
:102B900024B90E4B1B68002BF4D110BDFFF73AF897
:102BA0000B4BDB68DC68201DFFF7A6F9094A1368A8
:102BB000013B1360054A1368013B1360FFF74CF8B3
:102BC0002046FFF71DFDE4E7704700BF542F0120AA
:102BD000C82F0120502F012008B50BE04FF0E02353
:102BE0004FF08052C3F8042DBFF34F8FBFF36F8FA8
:102BF000FEF788FEFFF7C2FF024B1B68012BEDD8E2
:102C0000F6E700BFEC2E012008B52D4B1B681BB169
:102C10002C4B01221A6008BD2A4B00221A602A4B55
:102C20001B681B6B1A68B2F1A53F03D15A68B2F159
:102C3000A53F1BD0244B186819683431FEF761FE9C
:102C4000224B1B68B3FA83F3DBB2C3F11F0303EB20
:102C500083018A001E498A588AB94FF0500383F3D2
:102C60001188BFF36F8FBFF34F8FFEE79A68B2F101
:102C7000A53FDFD1DB68B3F1A53FDBD1E0E7144925
:102C800003EB830082000A4450684068506003EB05
:102C9000830C4FEA8C0208321144884209D003EBBE
:102CA00083039A000A4B13445B68DA68064B1A6088
:102CB000B1E7406862469100054A0A445060EEE779
:102CC0005C2F0120E02F0120E02E0120642F012045
:102CD000EC2E012058B110B50C46094A1168183184
:102CE000FFF7F1F801212046FFF76AFD10BD4FF014
:102CF000500383F31188BFF36F8FBFF34F8FFEE74D
:102D0000E02E012038B570B10D4614460A4A11680C
:102D10001831FFF7CDF80CB14FF0FF3521462846AA
:102D2000FFF74EFD38BD4FF0500383F31188BFF31A
:102D30006F8FBFF34F8FFEE7E02E012038B5C368D9
:102D4000DC6824B304F118052846FFF7D5F8184BC2
:102D50001B682BBB251D2846FFF7CEF8E06A012330
:102D60008340144A11680B43136000EB800029462E
:102D7000114B03EB8000FFF79BF8E26A0F4B1B68D7
:102D8000DB6A9A4211D901200D4B186038BD4FF013
:102D9000500383F31188BFF36F8FBFF34F8FFEE7AC
:102DA00029460848FFF784F8E7E70020EEE700BF70
:102DB0005C2F0120642F0120EC2E0120E02E012049
:102DC000E02F01209C2F012030B1084A12680260D8
:102DD000074A1268426070474FF0500383F311882E
:102DE000BFF36F8FBFF34F8FFEE700BF982F012017
:102DF000DC2F012038B5C0B10C460546F1B1FEF715
:102E000009FF1A4B1A682368B3F1FF3F27D02868DF
:102E100017490968884202D06968914224D96968D3
:102E2000501A834213D801241AE04FF0500383F361
:102E30001188BFF36F8FBFF34F8FFEE74FF0500342
:102E400083F31188BFF36F8FBFF34F8FFEE7891AAB
:102E50000B4423602846FFF7B7FF002400E000245E
:102E6000FEF7FAFE204638BD0124F9E7DC2F0120E9
:102E7000982F0120014B01221A607047E02F01209A
:102E8000054B1B6833B1054B1B680BB10020704725
:102E90000220704701207047B02F01205C2F0120D5
:102EA000002845D038B50446C36A224A1268D26A5F
:102EB000934214D28269002A05DB1E4A1268D26A44
:102EC000C2F105028261616903EB83031A4A02EBD6
:102ED0008303994204D0174B1B68DB6AE36238BD59
:102EE000251D2846FFF708F890B1124B1B68D86AD9
:102EF000E06201238340114A11680B43136000EB29
:102F0000800029460C4B03EB8000FEF7D1FFE6E77B
:102F1000E36A03EB8301084A52F82120002AE4D136
:102F200001229A4005490B6823EA02030B60DCE7A3
:102F3000704700BFE02E0120EC2E0120642F0120FD
:102F400000284BD038B50446264B1B68834208D076
:102F50004FF0500383F31188BFF36F8FBFF34F8F90
:102F6000FEE7C36C43B94FF0500383F31188BFF3FE
:102F70006F8FBFF34F8FFEE7013BC364C16A826C62
:102F800091422DD00BB1002038BD051D2846FEF71B
:102F9000B3FF68B9E36A03EB8301134A52F82120B7
:102FA00032B901229A4011490B6823EA02030B60EF
:102FB000A06CE062C0F10503A361012404FA00F3F0
:102FC0000A4A11680B43136000EB80002946064B48
:102FD00003EB8000FEF76CFF2046D5E7002070472A
:102FE0000020D1E7E02E0120EC2E0120642F0120EB
:102FF000054B1B6823B1044B1A68D36C0133D364AF
:10300000014B1868704700BFE02E0120064B1A687C
:103010001368B3FA83F35B09036013B9D3681868C4
:1030200070470020704700BFE42F012008B54160C1
:10303000006191420CD8D21A83699A4201D30120CF
:1030400008BD011D094B1868FEF73DFF0020F7E79A
:103050009A4201D2994206D2011D054B1868FEF72B
:1030600032FF0020ECE70120EAE700BFE82F012053
:10307000E42F012038B5FEF7CDFD0F4B1B6813B1CF
:10308000FEF7EAFD38BD0D4D2846FEF703FF0C4C58
:103090002046FEF7FFFE0B4B1D600B4B1C60002211
:1030A0000C210A20FFF72DF8034B18600028E7D009
:1030B0000649FFF751FAE3E718300120EC2F012011
:1030C00000300120E42F0120E82F0120B843000840
:1030D0002DE9F041079F41B94FF0500383F3118868
:1030E000BFF36F8FBFF34F8FFEE7064615461C46B2
:1030F00088465FB1FFF7BEFF3E60C7F81880FD61EC
:103100003C62069B7B62381DFEF7CFFEBDE8F08176
:1031100000B583B0FFF7AEFF0D4B1B685BB10D4BE5
:1031200001930223009300234FF482720A490B4853
:10313000FFF792FB40B94FF0500383F31188BFF3C0
:103140006F8FBFF34F8FFEE703B05DF804FB00BF46
:10315000183001201C300120C043000859340008F9
:103160002DE9F04182B00446884615461E462C20C3
:10317000FEF738FC074640B10190089B00933346A8
:103180002A4641462046FFF7A3FF384602B0BDE875
:10319000F0810000B8B19C4603461848006858B357
:1031A00000B585B001910292039305291CDCFFF75D
:1031B00067FE022810D000231A4601A90F480068B4
:1031C000FEF7C3FF15E04FF0500383F31188BFF300
:1031D0006F8FBFF34F8FFEE70023069A01A90748C0
:1031E0000068FEF7B2FF04E00023624601A9FFF782
:1031F00070F805B05DF804FB00207047183001201E
:1032000070B582B01A4B1B681A6852B3DB681E682F
:10321000DC68251D2846FEF76FFE636A2046984746
:10322000E369012BEED1A36933449E4207D2636068
:10323000246129460E4B1868FEF745FEE2E700219F
:1032400000910B4632462046FFF7A4FF0028D9D153
:103250004FF0500383F31188BFF36F8FBFF34F8F8D
:10326000FEE7044A106802490860136002B070BDAE
:10327000E42F0120E82F012038B50546FFF768FB51
:103280000446074B1B68834205D800232B60044B80
:103290001C60204638BDFFF7B3FF01232B60F6E723
:1032A0001430012070B582B006460D4614490968F5
:1032B000C968CC68201DFEF71FFEE169012904D012
:1032C000636A2046984702B070BDA16933462A461A
:1032D00031442046FFF7AAFE0028F1D000210091DA
:1032E0000B4632462046FFF755FF0028E8D14FF045
:1032F000500383F31188BFF36F8FBFF34F8FFEE747
:10330000E42F012070B582B006460C46FFF718FB8B
:1033100001A8FFF7B1FF019B2BBB05460CB9B042DA
:103320001AD22CB1124B1B681C68B4FA84F46409DD
:103330002246711B0F4B1868FFF722F9FFF7A2FB1B
:1033400098B94FF0E0234FF08052C3F8042DBFF33B
:103350004F8FBFF36F8F08E0FFF794FB294630468D
:10336000FFF7A0FF01E0FFF78DFB02B070BD00BFCB
:10337000E82F01201830012010B586B000231A462E
:1033800003A934480068FFF70AF8002860D0039BBF
:10339000002BF3DB059C636913B1201DFEF7ACFD28
:1033A00002A8FFF769FF039B092BE7D801A252F897
:1033B00023F000BFDD330008DD330008DD330008F3
:1033C0007D3300082334000849340008DD33000849
:1033D000DD3300087D33000823340008049BA16915
:1033E000024619442046FFF721FE0028C6D0636A32
:1033F00020469847E369012BC0D1A26900210091C2
:103400000B46049802442046FFF7C4FE0028B5D1BD
:103410004FF0500383F31188BFF36F8FBFF34F8FCB
:10342000FEE70499A16131B10346024601442046FA
:10343000FFF7FCFDA2E74FF0500383F31188BFF3C1
:103440006F8FBFF34F8FFEE72046FEF74DFB95E7EA
:1034500006B010BD1830012000B583B001A8FFF7F9
:10346000D5FD0199FFF74EFFFFF786FFF6E7000055
:1034700053B94AB9002908BF00281CBF4FF0FF31DB
:103480004FF0FF3000F070B9ADF1080C6DE904CEDB
:1034900000F006F8DDF804E0DDE9022304B070472F
:1034A0002DE9F047089E0D4604460F46002B4AD1F1
:1034B0008A42944665D9B2FA82F343B102FA03FC18
:1034C000C3F120029F4020FA02F217439C404FEACA
:1034D0001C4E1FFA8CF5B7FBFEF1220C0EFB117788
:1034E00042EA074201FB05F090420AD91CEB0202B6
:1034F00001F1FF3780F01C81904240F219810239BE
:103500006244121AA4B2B2FBFEF00EFB102244EA8F
:10351000024400FB05F5A5420AD91CEB040400F1A6
:10352000FF3280F00781A54240F2048164440238F2
:1035300040EA0140641B00211EB1DC400023C6E9C3
:103540000043BDE8F0878B4208D9002E00F0ED80E3
:103550000021C6E900050846BDE8F087B3FA83F10B
:10356000002949D1AB4202D3824200F2F880841A8A
:1035700065EB030201201746002EE2D0C6E90047A2
:10358000DFE702B9FFDEB2FA82F3002B40F0908051
:103590008A1A4FEA1C471FFA8CFE0121B2FBF7F58D
:1035A00007FB1520220C42EA00420EFB05F0904278
:1035B00008D91CEB020205F1FF3802D2904200F25A
:1035C000CB804546121AA4B2B2FBF7F007FB1022DB
:1035D00044EA02440EFB00FEA64508D91CEB040495
:1035E00000F1FF3202D2A64500F2BB801046A4EBE8
:1035F0000E0440EA05409FE7C1F120078B4022FA04
:1036000007FC4CEA030C05FA01F420FA07F3FD402D
:103610004FEA1C492343B5FBF9F81FFA8CFE09FB5E
:1036200018551C0C44EA054408FB0EF5A54202FAA5
:1036300001F200FA01F00BD91CEB040408F1FF3A87
:1036400080F08880A54240F28580A8F10208644499
:10365000641B9DB2B4FBF9F309FB134445EA04442F
:1036600003FB0EFEA64508D91CEB040403F1FF354D
:103670006CD2A6456AD9023B644443EA0843A3FBE3
:103680000295A4EB0E04AC42C846AE4656D353D0C6
:1036900056B1B0EB080264EB0E0404FA07F7CA4017
:1036A000CC401743C6E9007418460021BDE8F087F6
:1036B000C3F1200102FA03FC20FA01F225FA01F11C
:1036C0009D402A434FEA1C471FFA8CFEB1FBF7F0DE
:1036D00007FB1015110C41EA054100FB0EF58D4268
:1036E00004FA03F408D91CEB010100F1FF382FD2D2
:1036F0008D422DD902386144491B92B2B1FBF7F5D6
:1037000007FB151142EA014205FB0EF1914208D96F
:103710001CEB020205F1FF3816D2914214D9023D8A
:103720006244521A45EA004138E73146304608E71C
:103730003946E6E61046FBE64845A9D2B9EB020851
:1037400065EB0C0E013BA3E74546EAE72B4694E701
:103750004046D1E7D0467BE7023D624432E7084667
:103760000AE76444023842E7704700BF014B18681B
:10377000704700BF140000200A44914200F1FF335B
:1037800000D1704710B511F8014B03F8014F914279
:10379000F9D110BD02440346934200D1704703F8AB
:1037A000011BF9E770B50E4E0C463168054611B99C
:1037B00000F08CF830602146284600F087F8431C62
:1037C0000AD0C41C24F00304A04207D0211A2846C2
:1037D00000F07CF8013001D14FF0FF34204670BD7D
:1037E000243001202DE9F041CD1C25F003050835DA
:1037F0000C2D38BF0C25002D074601DBA94205D949
:103800000C233B6000263046BDE8F0812E4E00F0D0
:10381000B9F833681C4634BB29463846FFF7C2FF67
:10382000431C04464DD134682646002E40D12368FF
:103830003146384604EB030800F048F880453AD199
:1038400023680335ED1A25F0030508350C2D38BF24
:103850000C2529463846FFF7A5FF01302BD02368F9
:103860002B4423600EE02268521B1ED40B2A16D96B
:103870006119A342256018BF5960636808BF3160B1
:1038800062514B60384604F10B0600F07CF826F0DC
:103890000706231DF21AB6D09B1BA350B3E762683C
:1038A000A3420CBF32605A60ECE723466468B2E77B
:1038B00034467668B9E70C233B60384600F063F87D
:1038C000A1E72560DEE700BF2030012038B5064DB6
:1038D0000023044608462B60FDF7E8FB431C02D199
:1038E0002B6803B1236038BD0001002010F8012BC4
:1038F00011F8013B012A28BF9A42F7D0D01A70472D
:10390000034613F8012B002AFBD1181A013870471F
:1039100030B51446002C9BB005461A4605DA8B23B9
:1039200003604FF0FF301BB030BD4FF40273ADF8B1
:103930000C3014BF04F1FF332346029305934FF676
:10394000FF7300910491ADF80E3069461E9B00F0A4
:10395000C1F8431CBCBF8B232B60002CE3D0009B21
:1039600000221A70DFE7000007B5009313460A46ED
:10397000014603480068FFF7CBFF03B05DF804FB86
:10398000140000207047704737B5002944D051F823
:10399000043C0190002BA1F10404B8BFE418FFF728
:1039A000F1FF1E4A0198136833B96360146003B0D5
:1039B000BDE83040FFF7E7BFA34208D92568611989
:1039C0008B4201BF19685B6849192160EDE71A460F
:1039D0005B680BB1A342FAD911685518A5420BD107
:1039E000246821445418A3421160E0D11C685B682C
:1039F00053600C441460DAE702D90C230360D6E765
:103A0000256861198B4204BF19685B68636004BF55
:103A1000491921605460CAE703B030BD203001204D
:103A20002DE9F0478E681F46BE420B6882460C4661
:103A300090462CD88A8912F4906F26D0656909695E
:103A400005EB4505A3EB010905EBD5757B1C4B4444
:103A50006D109D4238BF1D46530527D52946FFF7F7
:103A6000C1FE064660B321694A46FFF785FEA38979
:103A700023F4906343F08003A381266165614E4483
:103A8000A5EB09052660A5603E46BE4200D93E462C
:103A900020683246414600F0FBFAA3689B1BA360F6
:103AA0002368334423600020BDE8F0872A4600F0F5
:103AB00009FB06460028E0D121695046FFF764FF64
:103AC0000C23CAF80030A38943F04003A3814FF0D0
:103AD000FF30E9E72DE9F04F98468B891B069DB032
:103AE00007460D4614460ED50B6963B94021FFF712
:103AF00079FE2860286120B90C233B604FF0FF302D
:103B0000D0E040236B610023099320238DF82930F6
:103B1000CDF80C803023DFF8A4818DF82A304FF0E7
:103B2000010923469A4613F8012B0AB1252AF9D137
:103B3000BAEB040B0BD05B46224629463846FFF70A
:103B40006FFF013000F0A980099A5A4409929AF84F
:103B50000030002B00F0A18000234FF0FF32CDE9B0
:103B600005230AF1010A049307938DF853301A9341
:103B70005446052214F8011B504800F039FA049A03
:103B8000D8B9D00644BF20238DF85330110744BF65
:103B90002B238DF853309AF800302A2B15D0079A32
:103BA000544600204FF00A0C214611F8013B303BEF
:103BB000092B4DD9B0B1079214E0A0EB080309FA24
:103BC00003F313430493A246D2E7039B191D1B681A
:103BD0000391002BBBBF5B4242F0020207930793A5
:103BE000B8BF049223782E2B0CD163782A2B34D1C2
:103BF000039B1A1D1B680392002BB8BF4FF0FF33C5
:103C000002340593DFF8C4A021780322504600F067
:103C1000EFF938B1049BA0EB0A0040228240134325
:103C20000134049314F8011B25488DF8281006224E
:103C300000F0DEF9002838D0224B1BBB039B073372
:103C400023F0070308330393099B3344099368E780
:103C50000CFB02320C460120A6E700230134059339
:103C600019464FF00A0C204610F8012B303A092A69
:103C700003D9002BC6D00591C4E70CFB01210446F3
:103C80000123F0E703AB00932A460F4B04A9384603
:103C9000AFF30080421C0646D6D1AB895B063FF5E8
:103CA0002DAF09981DB0BDE8F08F03AB00932A46F5
:103CB000054B04A9384600F079F8EBE72C450008DD
:103CC0003645000800000000213A0008324500088F
:103CD0002DE9F047164699468A680B69DDF8208081
:103CE0009342B8BF1346336091F8432007460C4611
:103CF0000AB1013333602368990642BF3368023347
:103D00003360256815F0060506D104F1190AE36849
:103D100032689B1AAB4226DC94F84320131E2268BB
:103D200018BF012392062BD404F1430249463846BA
:103D3000C04701301ED02368226903F00603042B1C
:103D400002BFE5683368ED1AA3680CBF25EAE57584
:103D500000259342C4BF9B1AED1800261A34B542C1
:103D60001AD1002008E00123524649463846C04790
:103D7000013003D14FF0FF30BDE8F0870135C6E7D1
:103D8000E1185A1C302081F84300224494F8451071
:103D900082F843100233C7E70123224649463846DA
:103DA000C0470130E6D00136D9E700002DE9FF47D2
:103DB0000F7E0C9D782F914680460C469A4601F165
:103DC000430207D8622F0AD8002F00F0D480582F62
:103DD00000F0C08004F1420584F842703AE0A7F197
:103DE0006303152BF6D801A151F823F0453E0008D6
:103DF000593E0008D53D0008D53D0008D53D0008D6
:103E0000D53D0008593E0008D53D0008D53D0008C5
:103E1000D53D0008D53D00085D3F0008853E0008FF
:103E2000173F0008D53D0008D53D00087F3F00083A
:103E3000D53D0008853E0008D53D0008D53D000869
:103E40001F3F00082B681A1D1B682A6004F14205F9
:103E500084F8423001239FE020682B68070603F1B5
:103E60000401296001D51E6803E04606FBD5B3F9BD
:103E70000060002E03DA2D23764284F843305A483E
:103E80000A2312E02B682068191D2960050601D558
:103E90001E6802E04106FBD51E8853486F2F0CBFF9
:103EA00008230A23002184F843106568A560002DCB
:103EB000A2BF216821F0040121600EB9002D4BD072
:103EC0001546B6FBF3F103FB1167C75D05F8017DED
:103ED0003746BB420E46F4D9082B0BD12368DE07C8
:103EE00008D5236961689942DEBF302305F8013C9B
:103EF00005F1FF35521B2261CDF800A04B4603AA05
:103F000021464046FFF7E4FE01304AD14FF0FF3032
:103F100004B0BDE8F087236843F0200323603348F2
:103F2000782784F84570236829681F0651F8046BC8
:103F300002D45F0648BFB6B2DF0748BF43F0200394
:103F4000296048BF23601EB9236823F02003236043
:103F50001023A7E72448E4E71546BDE72B68266849
:103F60006169181D286035061B6801D5196002E0DB
:103F70007006FBD51980002323611546BCE72B682A
:103F80001A1D2A601D6862680021284600F030F87A
:103F900008B1401B606063682361002384F84330EC
:103FA000AAE723692A4649464046D0470130ADD0AA
:103FB00023689B0713D4E068039B9842B8BF184658
:103FC000A6E70123324649464046D04701309DD0FE
:103FD0000135E36803995B1AAB42F2DCEBE700259D
:103FE00004F11906F5E700BF3D4500084E450008FD
:103FF00001F0FF01102A2BDB10F0070F08D010F89A
:10400000013B013A8B422DD010F0070F42B3F6D19D
:10401000F0B441EA012141EA014122F007047FF0B6
:1040200000070023F0E80256083C85EA010586EA0D
:10403000010685FA47F5A3FA87F586FA47F6A5FA49
:1040400087F68EB9EED1F0BC01F0FF0102F0070255
:1040500032B110F8013B013A83EA010313B1F8D100
:104060000020704701387047002D06BF35460338E1
:10407000073815F0010F07D1013015F4807F02BF1A
:10408000013015F4C03F0130F0BC0138704700BF6B
:10409000884210B501EB020402D98442234607D8B6
:1040A000431EA14208D011F8012B03F8012FF8E7B5
:1040B000024401468A4200D110BD13F8014D02F8B6
:1040C000014DF7E72DE9F041804614460E4621B92F
:1040D000BDE8F0411146FFF785BB2AB9FFF754FC54
:1040E00025462846BDE8F08100F01BF884420746CB
:1040F00002D8B4EB500F12D821464046FFF772FBAE
:1041000005460028EDD0BC422246314628BF3A463B
:10411000FFF732FB31464046FFF736FCE1E7354614
:10412000DFE751F8043C181F002BBCBF0B58C01828
:10413000704700002E2E2F73797374656D2F737284
:10414000632F73746D333266342D68616C2F737412
:104150006D3332663478785F68616C5F636F727458
:1041600065782E63000000002E2E2F73797374651E
:104170006D2F7372632F73746D333266342D6861E3
:104180006C2F73746D3332663478785F68616C5F5E
:104190006770696F2E6300002E2E2F73797374651C
:1041A0006D2F7372632F73746D333266342D6861B3
:1041B0006C2F73746D3332663478785F68616C5F2E
:1041C0007263632E630000003A7474005374616379
:1041D0006B206672616D653A0A0000002052302043
:1041E0003D2020253038580A0000000020523120A0
:1041F0003D2020253038580A00000000205232208F
:104200003D2020253038580A00000000205233207D
:104210003D2020253038580A00000000205231325D
:10422000203D20253038580A00000000204C522044
:104230003D2020253038580A00000000205043203F
:104240003D2020253038580A0000000020505352ED
:10425000203D20253038580A000000004653522FD8
:104260004641523A0A0000002043465352203D2066
:1042700020253038580A00002048465352203D205F
:1042800020253038580A00002044465352203D2053
:1042900020253038580A00002041465352203D2046
:1042A00020253038580A0000204D4D464152203D0F
:1042B00020253038580A00002042464152203D2037
:1042C00020253038580A00004D6973630A00000049
:1042D000204C522F4558435F52455455524E3D2075
:1042E000253038580A0000005B48617264466175E9
:1042F0006C745D0A000000005B4275734661756C6A
:10430000745D0A005B55736167654661756C745D29
:104310000A00000000000000000000000102030489
:104320000607080957726F6E6720706172616D65CC
:10433000746572732076616C75653A2066696C6588
:10434000202573206F6E206C696E652025640D0A30
:10435000000000004175746F2D52656C6F61642020
:1043600074696D65722063616C6C6261636B20655A
:104370007865637574696E67000000004F6E652D87
:1043800073686F742074696D65722063616C6C6210
:1043900061636B20657865637574696E6700000002
:1043A00054696D657231000054696D6572320000A8
:1043B00049444C4500000000546D7251000000005B
:1043C000546D72205376630000202020202020208E
:1043D00020202828282828202020202020202020B5
:1043E00020202020202020202088101010101010C5
:1043F0001010101010101010100404040404040411
:1044000004040410101010101010414141414141AA
:10441000010101010101010101010101010101018C
:10442000010101011010101010104242424242429C
:10443000020202020202020202020202020202025C
:104440000202020210101010200000000000000004
:10445000000000000000000000000000000000005C
:10446000000000000000000000000000000000004C
:10447000000000000000000000000000000000003C
:10448000000000000000000000000000000000002C
:10449000000000000000000000000000000000001C
:1044A000000000000000000000000000000000000C
:1044B00000000000000000000000000000000000FC
:1044C00000000000000000000000000000000000EC
:1044D00000000000000000000000000000000000DC
:1044E00000000000000000000000000000000000CC
:1044F00000000000000000000000000000000000BC
:1045000000000000000000000000000000000000AB
:10451000000000000000000000000000000000009B
:10452000000000000000000000000000232D302BE0
:104530002000686C4C0065666745464700303132A4
:1045400033343536373839414243444546003031FB
:0F4550003233343536373839616263646566005B
:0845600040EFFF7F01000000A5
:104568007856341201FFFFFF100000000024F40009
:10457800AAAAAAAA1800002000000000EC4400081B
:104588000C450008CC4400080000000000000000B2
:104598000000000000000000000000000000000013
:1045A8000000000000000000000000000000000003
:1045B80000000000000000000000000000000000F3
:1045C80000000000000000000000000000000000E3
:0C45D80000000000000000003254769843
:040000050800018965
:00000001FF
